:100000000C9495000C94BD000C94BD000C94BD00A4
:100010000C94BD000C94BD000C94BD000C94BD006C
:100020000C94BD000C94BD000C94BD000C94BD005C
:100030000C94BD000C943A110C94BD000C94BD00BE
:100040000C94BD000C94BD000C94BD1F0C94BD001D
:100050000C947C230C94BD000C94BD000C94BD004A
:100060000C94BD000C94BD000C94BD000C94BD001C
:100070000C94B9230C94BD000C94BD0000212427DE
:100080002A002225282B0020232629020202020210
:10009000020202040404040404040403030303032B
:1000A0000303030101010101010101010204081020
:1000B0002040800102040810204080010204081042
:1000C000204080804020100804020100000001024E
:1000D000000000000000000403070600000000000C
:1000E0000000000000000000000000494E46494E9C
:1000F0004954594E414ECDCCCC3D0AD7233C17B77D
:10010000D13877CC2B329595E6241FB14F0A0000E9
:1001100020410000C84200401C4620BCBE4CCA1B07
:100120000E5AAEC59D740F0C542111241FBECFEF83
:10013000D0E1DEBFCDBF11E0A0E0B1E0E6E8FEE433
:1001400002C005900D92AE37B107D9F717E0AEE7C0
:10015000B1E001C01D92AB31B107E1F711E0CAE295
:10016000D1E004C02297FE010E94FB26C632D107CF
:10017000C9F70E94B61F0C9441270C940000A0E020
:10018000B0E0E5ECF0E00C941027EC015B016115A8
:10019000710519F0FB0191838083F9908F2D90E018
:1001A0000E94FF26892BC9F7FDE2FF1621F4F99082
:1001B000EE24E39405C02BE2F21609F4F990EE2444
:1001C0008E0101501040C8016BEE70E043E050E03A
:1001D0000E946C03892B01F58E010E5F1F4FC80131
:1001E0006EEE70E045E050E00E946C03892B19F43C
:1001F0008E01095F1F4FA114B10419F0F50111839D
:100200000083E0FC04C070E090E080E814C070E07F
:1002100090E080E86FEF08C1C80163EF70E043E051
:1002200050E00E946C03892B69F4A114B10429F4F5
:1002300070E090E080EC6FE7F7C02296F501D18383
:10024000C083F6CF8824992440E050E060E070E05D
:10025000EF2DE053EA30A0F5F2E0EF2A8E2D90E08A
:100260009C0128703070E2FE06C0232B79F50894BB
:10027000811C911C2BC0232B19F008948108910834
:10028000DB01CA0112E0880F991FAA1FBB1F1A9534
:10029000D1F7480F591F6A1F7B1F440F551F661F58
:1002A000771F4E0F511D611D711D483929E95207F5
:1002B00029E9620729E1720748F084E0E82A06C0CC
:1002C000EE3F31F4E3FC39C098E0E92AF990C0CF61
:1002D000E53311F0E53189F529912D3219F4E0E18A
:1002E000EE2A05C02B3219F081E090E003C029917D
:1002F00082E090E0E22FE053EA3018F0C81BD90BFF
:100300001CC020E030E0FCE020383F075CF4C9016D
:10031000880F991F880F991F280F391F220F331F2D
:100320002E0F311DE991E053EA3068F3E4FE03C07B
:10033000309521953F4F820E931ECE2CDD24E1FE99
:1003400007C0A114B10421F02197F501D183C08326
:10035000CB01BA010E94F8247B018C01F3E0CF228B
:10036000DD2423E0C216D10421F417FB109517F900
:10037000109557016801C801B70120E030E040E066
:1003800050E00E945B24882309F44AC097FE0DC008
:100390002AE0E22E21E0F22E909481949108939429
:1003A000C0E2D0E000E010E012C092E2E92E91E05D
:1003B000F92EF6CFF7012591359145915491C6015B
:1003C000B5010E94AE255B016C018C1A9D0A8C164A
:1003D0009D0684F7D595C7950F5F1F4F0630110511
:1003E00029F08CEF9FEFE80EF91EF1CFC501D60181
:1003F0007C018D018C2D880F8D2D881F8F3F51F032
:10040000C601B50120E030E040E050E00E945B24EE
:10041000882331F482E290E090931A0780931907C1
:100420007E2D9F2D802F612F272F392F482F562F5C
:10043000B901CA01CDB7DEB7ECE00C942C272F929E
:100440003F925F926F927F928F929F92AF92BF92F4
:10045000CF92DF92EF92FF920F931F93CF93DF9390
:100460008C011B01EA016115710519F0FB019183F3
:100470008083209749F0CE010297839728F020E0EF
:1004800030E040E050E0F6C0F801A1908F018A2DE5
:1004900090E00E94FF26892BB9F7FDE2AF1631F4F8
:1004A000F801A1908F015524539407C0FBE2AF16C9
:1004B00019F4F801A1908F015524209719F0C0314B
:1004C000D105C1F4F0E3AF1679F4F80180818837E3
:1004D00011F0883549F4F801A1800E5F1F4FF2E05A
:1004E0005F2AC0E1D0E006C0209721F480E3A8167F
:1004F000E9F427C0C830D10531F1C930D10524F461
:10050000C230D10531F50CC0CA30D10589F0C031F7
:10051000D105F9F4C12CD12CE12CB8E0FB2E28C078
:10052000C12CD12CE12CA0E4FA2E22C0CAE0D0E0EC
:10053000FCECCF2EFCECDF2EFCECEF2EFCE0FF2ED3
:1005400017C0C8E0D0E0C12CD12CE12CE0E1FE2E98
:100550000FC09E01442737FD4095542F60E070E0A6
:1005600080E090E80E94A826C901DA016C017D01B3
:1005700020E030E040E050E060E03E01882477FC7D
:100580008094982C70EDB72EBA0CE9E0EB1570F45E
:100590008A2D81548A3118F499ECB92E06C08A2D1F
:1005A00081568A3150F589EAB82EBA0C8B2D90E02D
:1005B0008C179D0714F56F3FE1F0C216D306E406D1
:1005C000F506B0F0CA01B901A40193010E94762694
:1005D0009B01AC012B0D311D411D511D2130F0E05F
:1005E0003F07F0E04F07F0E85F0710F461E001C05B
:1005F0006FEFF801A1908F01C5CF2114310481F074
:10060000662331F001501040F1011183008308C0CE
:1006100051FE1AC002501040F1011183008314C032
:1006200067FF12C050FC05C02FEF3FEF4FEF5FE7B1
:1006300004C020E030E040E050E882E290E0909397
:100640001A078093190716C050FE08C050954095B0
:10065000309521953F4F4F4F5F4F0CC057FF0AC059
:1006600082E290E090931A07809319072FEF3FEFF3
:100670004FEF5FE7B901CA01DF91CF911F910F9151
:10068000FF90EF90DF90CF90BF90AF909F908F90B2
:100690007F906F905F903F902F900895FC01882786
:1006A0009927E89421912032E9F3293010F02E3077
:1006B000C8F32B3241F02D3239F4689404C00E9403
:1006C000B703820F911D219120532A30C0F31EF4ED
:1006D000909581959F4F0895FB01DC01415050405A
:1006E00088F08D9181341CF08B350CF4805E65911F
:1006F00061341CF06B350CF4605E861B611171F384
:10070000990B0895881BFCCFFB01DC010D900020A4
:10071000E9F7119701900D920020E1F70895FB0190
:10072000DC0101900D920020E1F70895FB019F018B
:10073000E8944230C4F04532B4F44A3029F497FBCF
:100740001EF4909581959F4F642F77270E94E52690
:10075000805D8A330CF0895D8193CB010097A1F70E
:1007600016F45DE251931082C9010C94BF037AE044
:10077000979F902D879F802D910D11240895DC0166
:10078000FC01672F71917723E1F7329704C07C91C8
:100790006D9370836291AE17BF07C8F308952F92CF
:1007A0003F924F925F926F927F928F929F92AF9201
:1007B000BF92CF92DF92EF92FF920F931F93DF933E
:1007C000CF93CDB7DEB72E970FB6F894DEBF0FBE2E
:1007D000CDBF9E878D878B017A01FB01608171817E
:1007E00082819381FA0120813181428153810E946B
:1007F000AE255B016C01F80164817581868197816A
:10080000F70124813581468157810E94AE253B0145
:100810004C01F8016085718582859385F7012085FB
:100820003185428553850E94AE251B012C01F801BC
:100830006485758586859785F70124853585468588
:1008400057850E94AE2569877A878B879C87F80138
:100850006089718982899389F70120893189428968
:1008600053890E94AE257B018C01C601B50120E0B1
:1008700030E040E050E00E94AA2588234CF0C601F9
:10088000B50120E030E040E05FE30E94F72308C0BC
:10089000C601B50120E030E040E05FE30E94F623AE
:1008A0000E94C72469837A838B839C83C401B3012C
:1008B00020E030E040E050E00E94AA2588234CF080
:1008C000C401B30120E030E040E05FE30E94F72381
:1008D00008C0C401B30120E030E040E05FE30E94C3
:1008E000F6230E94C7246D837E838F839887C2017D
:1008F000B10120E030E040E050E00E94AA258823CA
:100900004CF0C201B10120E030E040E05FE30E9422
:10091000F72308C0C201B10120E030E040E05FE30E
:100920000E94F6230E94C7243B014C0169857A8509
:100930008B859C8520E030E040E050E00E94AA25B5
:1009400088235CF069857A858B859C8520E030E082
:1009500040E05FE30E94F7230AC069857A858B85B2
:100960009C8520E030E040E05FE30E94F6230E9497
:10097000C7245B016C01C801B70120E030E040E012
:1009800050E00E94AA2588234CF0C801B70120E05E
:1009900030E040E05FE30E94F72308C0C801B701E0
:1009A00020E030E040E05FE30E94F6230E94C7248D
:1009B00029813A814B815C81ED85FE8520833183DD
:1009C000428353832D813E814F8158852483358313
:1009D000468357836086718682869386A486B58611
:1009E000C686D786608B718B828B938BCF012E96B8
:1009F0000FB6F894DEBF0FBECDBFCF91DF911F9130
:100A00000F91FF90EF90DF90CF90BF90AF909F90AD
:100A10008F907F906F905F904F903F902F900895B0
:100A2000882321F4809181008B7F29C0813049F493
:100A3000809181008B7F8093810080918100826012
:100A400015C0823049F4809181008B7F80938100B2
:100A500080918100826018C0833071F480918100A0
:100A6000846080938100809181008D7F80938100DC
:100A7000809181008E7F0DC0809181008460809381
:100A80008100809181008D7F809381008091810021
:100A90008160809381000895E0E8F0E01082A1E891
:100AA000B0E01C921092820010926F008C918F7EA9
:100AB0008C938C9188608C9380818D7F80838081E2
:100AC0008E7F808380818F77808380818F7B8083FE
:100AD00080818F7D808380818F7E808384E00E94EF
:100AE00010058FEF9FEF9093890080938800089501
:100AF000FC0180819181A281B381803020E0920746
:100B000021E0A20720E0B2070CF441C0893F2FEF9B
:100B1000920727E0A20720E0B20744F453E0B5951E
:100B2000A795979587955A95D1F731C0813C2FEFBE
:100B300092072FE3A20720E0B20744F446E0B59500
:100B4000A795979587954A95D1F721C081302FEFCA
:100B500092072FEFA20720E0B2073CF4892F9A2FCB
:100B6000AB2FBB27A7FDBA9512C081302CEF92079F
:100B70002FEFA20723E0B2071CF0EFEFFFEF08C052
:100B80002AE0B595A795979587952A95D1F7FC0109
:100B9000CF010895EF92FF920F931F93DF93CF93AE
:100BA00000D000D0CDB7DEB77B018C0164E0EE0C45
:100BB000FF1C001F111F6A95D1F7E982FA820B838F
:100BC0001C83CE0101960E94780590938900809342
:100BD000880080E0E81680E0F80681E0080780E001
:100BE000180714F480E022C089EFE8168FEFF806AA
:100BF00087E0080780E0180714F481E017C081EC53
:100C0000E8168FEFF8068FE3080780E0180714F462
:100C100082E00CC081E0E8168FEFF8068FEF08073E
:100C200080E0180714F084E001C083E00E94100502
:100C30000F900F900F900F90CF91DF911F910F9118
:100C4000FF90EF900895FB01428181E08283DB01F8
:100C500020E030E005C0992787FD9095280F391FC7
:100C60008D918823C1F7215030402F733070822F2F
:100C7000805D828390E0481709F491E0892F089500
:100C8000CF93DF93DC018AE255968C935597569665
:100C90008C93569757968C93579758966C93589772
:100CA00088E459968C9359975B964C935B97ED012A
:100CB00080E090E001C0EB8F482F495FF901E80F19
:100CC000F91FE081EE2329F0019621968A309105E3
:100CD00091F7C42FD0E0FD01EC0FFD1F158A81E0D4
:100CE0005A968C935A97FD01789620E030E005C023
:100CF000992787FD9095280F391F81918823C1F787
:100D0000215030402F733070822F805D5A968C9323
:100D10005A97CA0FDB1F84E28D8B4F5FA40FB11D62
:100D200055961C92DF91CF910895FC0181A191E02D
:100D3000892781A3882319F084E061E002C084E060
:100D400060E00E94BD2008958DE161E00E94BD2019
:100D500008950F931F938C0108551F4FF8011082BF
:100D600002501040F80110820251104081E0F80159
:100D700081938193819381938F01808308591040DF
:100D800080E090E0A0E0B0E0F801848B958BA68B2A
:100D9000B78B808F918FA28FB38F848F958FA68F03
:100DA000B78F80A391A3A2A3B3A380E090E0A8E4AF
:100DB000B3E484A395A3A6A3B7A38FE061E00E9448
:100DC0009F2082E161E00E949F2087E161E00E9414
:100DD0009F2086E161E00E949F208BE161E00E94FC
:100DE0009F208CE161E00E949F2083E161E00E94EE
:100DF0009F2088E161E00E949F208DE161E00E94D8
:100E00009F20C8010E94A40684E160E00E949F2008
:100E100089E160E00E949F208EE160E00E949F20B7
:100E200084E899E9ADE1B1E4F80180839183A2837C
:100E3000B3838DE99CE0ADE1B1E484839583A6831F
:100E4000B78385E69AE9A1EAB3E480879187A28710
:100E5000B38780E090E0A8E1B1E484879587A68716
:100E6000B78780E090E0A0E8BFE3808B918BA28BF6
:100E7000B38B1F910F910895CF93DF93EC01C85965
:100E8000DF4F88819981AA81BB81C856D0400097E5
:100E9000A105B10521F083E160E00E94BD20C459A5
:100EA000DF4F88819981AA81BB81CC56D0400097C1
:100EB000A105B10521F088E160E00E94BD20C05984
:100EC000DF4F88819981AA81BB810097A105B10577
:100ED00021F08DE160E00E94BD20DF91CF91089567
:100EE000CF93DF93EC01CA55DF4F8881C65AD040BB
:100EF000882349F5CC56DF4F699182E10E94BD20DD
:100F0000699186E10E94BD20699181E068278CE1AA
:100F10000E94BD208881C759D040882319F080E104
:100F200061E002C080E160E00E94BD20CE010E942D
:100F30003C0768EE73E080E090E00E94CA05C85567
:100F4000DF4F81E08883DF91CF9108958091230264
:100F500091E0892780932302882319F080E061E0E3
:100F600002C080E060E00E94BD200895AF92BF9271
:100F7000CF92DF92EF92FF920F931F93DF93CF9365
:100F800000D0CDB7DEB78C017B016A015901BE01EB
:100F90006F5F7F4F4AE050E00E941F0229813A8133
:100FA000201B310B121613065CF4F701718360836A
:100FB000F601808191818A299B299183808303C0D6
:100FC000F70111821082C9010F900F90CF91DF912C
:100FD0001F910F91FF90EF90DF90CF90BF90AF9057
:100FE0000895AF92BF92CF92DF92EF92FF920F934C
:100FF0001F93DF93CF9300D0CDB7DEB78C017B0179
:101000006A015901BE016F5F7F4F0E94BF002981B5
:101010003A81201B310B121613066CF4F701608322
:10102000718382839383F601808191818A299B2930
:101030009183808309C080E090E0A0E0B0E0F701F8
:1010400080839183A283B383C9010F900F90CF91C6
:10105000DF911F910F91FF90EF90DF90CF90BF90A5
:10106000AF9008952F923F924F925F926F927F922E
:101070008F929F92AF92BF92CF92DF92EF92FF92A8
:101080000F931F93DF93CF93CDB7DEB764970FB65F
:10109000F894DEBF0FBECDBF8B015A8B498BFC018C
:1010A000119211926F017C019C012C5F3F4F388B94
:1010B0002F87FC013696FE87ED879C01285D3F4F08
:1010C0003C872B87FC013896FA87E9879C01245FCF
:1010D0003F4F38872F83FC017096FE83ED839C0180
:1010E0002C5E3F4F3C832B83FC017C96FA83E98383
:1010F00020E2222E312C280E391EB4E24B2E512C28
:10110000480E591EACE26A2E712C680E791EF0E36F
:101110008F2E912C880E991EE8E1AE2EB12CA80ED0
:10112000B91E1C8A1B8ACCC0EB89FC89E00FF11F19
:10113000E081E03509F456C0E13594F4E73441F13B
:10114000E83434F4E53409F4A9C0E634F1F48BC092
:10115000EA3409F47EC0ED3429F1E934B1F46EC00B
:10116000E43569F1E5354CF4E23509F486C08B8944
:101170009C890196E33574F58AC0E93509F448C0C5
:10118000EA3509F450C0E835C1F180E090E091C043
:101190008B899C890196800F911FB601A70121E0E0
:1011A00030E00AC08B899C890196800F911F6F8562
:1011B0007889A70122E030E00E94B6077AC08B89C7
:1011C0009C890196800F911F6D857E85A70120E087
:1011D00030E4F2CF800F911F6B857C85A70120E062
:1011E00034E065C08B899C890196800F911F6985C9
:1011F0007A85A70124E030E05AC08B899C8901964A
:10120000800F911F6F817885A70128E030E04FC0E3
:101210008B899C890196800F911F6D817E81A7012A
:1012200020E130E044C08B899C890196800F911F9A
:101230006B817C81A70120E230E039C08B899C89D9
:101240000196800F911F69817A81A70120E430E027
:101250002EC08B899C890196800F911FB101A70137
:1012600020E830E024C08B899C890196800F911F73
:10127000B201A70120E032E01AC08B899C89019657
:10128000800F911FB301A70120E030E110C0800F53
:10129000911FB401A70120E038E009C08B899C8927
:1012A0000196800F911FB501A70120E030E20E9456
:1012B000F10701962B893C89280F391F3C8B2B8B1A
:1012C0008B899C89E989FA898E179F070CF42CCFAA
:1012D00064960FB6F894DEBF0FBECDBFCF91DF91FD
:1012E0001F910F91FF90EF90DF90CF90BF90AF9044
:1012F0009F908F907F906F905F904F903F902F9036
:101300000895CF93DF93EC018881883459F08BE006
:1013100096E060E071E00E94A72118821C8A1AA65C
:101320001BA602C081E08BA7DF91CF91089583E8CF
:1013300091E062E171E00E948F03089583E891E0FB
:1013400065E171E00E948F03089583E891E068E110
:1013500071E00E948F030895FC0183E090E095A75F
:1013600084A783E891E06BE171E00E948F03089508
:10137000FC0181E090E095A784A783E891E06EE10D
:1013800071E00E948F03089583E891E061E271E0CB
:101390000E948F03089583E891E064E271E00E9467
:1013A0008F03089583E891E067E271E00E948F0364
:1013B000089583E891E06AE271E00E948F03089546
:1013C000FC011082148A12A613A683E891E06DE254
:1013D00071E00E948F030895FC0111A683E891E05B
:1013E00060E371E00E948F030895EF92FF920F93E4
:1013F0001F937C0103E811E0C80163E371E00E94E0
:101400008F03C801B7010E9484031F910F91FF90C1
:10141000EF900895EF92FF920F931F937C0103E8E2
:1014200011E0C80167E371E00E948F03C801B701B2
:101430000E9484031F910F91FF90EF9008950F93E6
:101440001F938C010E942D20E0E0D8019E962D91E3
:101450003D914D915C91D197621B730B840B950B61
:10146000643071058105910508F0E1E08E2F1F9130
:101470000F910895CF93DF93EC018CA59DA5892B47
:1014800029F4CE010E94D90980E01CC08CE061E003
:101490000E94BD201DA61CA68EE090E00197F1F7EA
:1014A00004C08EE096E00E9469218EE096E00E94E2
:1014B0006E218823B1F70E942D206EA77FA788ABED
:1014C00099AB81E0DF91CF910895CF93DF93EC0149
:1014D0008CA59DA5892B19F08AA5882339F0CE010A
:1014E0000E94CB0980E0DF91CF910895CE010E9448
:1014F0004006CE010E943A0A81E0F5CFCF93DF93F8
:10150000EC018AA5882329F0CE010E94D20980E04F
:1015100013C08CE060E00E94BD2082E090E09DA7B7
:101520008CA78EE090E00197F1F70E942D206EA726
:101530007FA788AB99AB81E0DF91CF910895FC0143
:10154000158A11A61082148A12A613A60E947E0A7A
:1015500008950F931F938C018DE061E00E949F20FE
:101560008CE061E00E949F208DE060E00E94BD2041
:10157000C8010E949F0A1F910F9108951F93CF9356
:10158000DF93EC018CA59DA58130910509F44CC039
:10159000823091051CF4892B49F095C08230910569
:1015A00009F445C0039709F08EC085C08EE096E02F
:1015B0000E946E21882371F08EE096E00E946921DE
:1015C000182F0E942D206EA77FA788AB99AB1432ED
:1015D00071F409C0CE010E941F0A882341F0CE0198
:1015E0000E94B80973C0CE010E949F0A6FC089A5EE
:1015F000FE01E80FF11D4589442309F467C0552712
:1016000047FD5095652F752F8EE096E020E030E085
:101610000E94812289A58F5F89A789A58431C0F1A5
:10162000CE010E94EC0934C01D8A19A644C08EE088
:1016300096E00E946E21882391F18EE096E00E9450
:101640006921982F843231F08A3289F41C8A81E032
:101650008AA71EC08AA58823D9F01AA68C89FE0104
:10166000E80FF11D1082CE010E94810911C08AA5E8
:10167000882371F08C89FE01E80FF11D90838C891D
:101680008F5F8C8B8C89843118F0CE010E94E00929
:101690000E942D206EA77FA788AB99AB17C08AA5A3
:1016A0008823A1F0CE010E941F0A882379F0CE0181
:1016B0000E94AC090BC018821C8A1AA61BA6CE0178
:1016C0000E947E0A03C0CE010E94C409DF91CF911F
:1016D0001F910895EF92FF920F931F93CF93DF9383
:1016E000EC010E942D207B018C0114C0CE010E94D0
:1016F000BE0A0E942D206E197F09800B910B643069
:1017000071058105910530F0CE010E94A5091BA647
:1017100080E005C08BA5882349F31BA681E0DF91FB
:10172000CF911F910F91FF90EF900895CF93DF938A
:10173000EC019A0141E40E94650A882321F4CE015C
:101740000E949E091BC0CE010E946A0B882321F4CF
:10175000CE010E94970912C0CE01BE010E9423064D
:10176000882321F4CE010E940A0A08C08B818134AB
:1017700011F481E004C0CE010E94F50980E0DF9100
:10178000CF9108950F931F938C01CB01F8017283C1
:10179000618324E52187B801665F7F4F4AE050E00E
:1017A0000E94960387EE91E0F8016081075F1F4F6A
:1017B000A8010E94960B1F910F9108950F931F93FC
:1017C0008C01FC01608381E161E00E949F2080E147
:1017D00061E00E949F2081E160E00E94BD2080E1E5
:1017E00060E00E94BD2084E061E00E949F2085E0CF
:1017F00061E00E949F2084E060E00E94BD2085E0BF
:1018000060E00E94BD20C80160E070E00E94C20B51
:10181000F801178E10A211A21F910F91089587E170
:1018200093E061E30E94DE0B89E393E060E30E94B2
:10183000DE0B87EE91E00E94A90A8BE593E00E94FF
:10184000A90684E094E00E94A9068DEA94E00E9433
:10185000A90686E595E00E94A90608950F931F93B7
:101860008C01862F93E4F8019187B801665F7F4F62
:1018700090E04AE050E00E94960387EE91E0F80184
:101880006081075F1F4FA8010E94960B1F910F9167
:101890000895CF93DF93FC01EA01662321F086E5EA
:1018A000818781E303C086E5818780E38287138691
:1018B00087EE91E060813996AF010E94960BBE01E0
:1018C000882777FD8095982F0E943B20DF91CF914C
:1018D0000895CF93DF93EC010E94960B882309F4BF
:1018E0001C829E012C5F3F4FC901DF91CF9108956B
:1018F000FC0184E78187128687EE91E0608139964A
:10190000AF010E94690C0E944E030895EF92FF926E
:101910000F931F937C010BE016E0C8016BE371E0AD
:101920000E947821C7010E94780CBC01C8010E9466
:1019300071221F910F91FF90EF900895EF92FF9207
:101940000F931F93CF93DF93EC011C821B821886A9
:101950001F821E821D82EE24E394FF240F811885CE
:10196000CE010E94780C9C01200F311F38872F83F5
:101970008B819C8101969C838B8306972CF1C901F6
:1019800065E070E00E94952678876F8389819A814F
:1019900005976817790734F08AE08F15E0F0F39423
:1019A000EE240EC0EE2061F08D819E818617970790
:1019B0001CF47E836D8304C0CE010E94860C0BC094
:1019C00018861F821C821B8268EE73E080E090E024
:1019D0000E943B20C3CFDF91CF911F910F91FF90C9
:1019E000EF900895AF92CF92DF92EF92FF920F9314
:1019F0001F93CF93DF93EB01C016D106E206F306E7
:101A000011F420E010C077FD0DC0AA2059F4862FF4
:101A10000E940821892B31F48C2F0E94082120E09C
:101A2000892B09F021E0822FDF91CF911F910F9137
:101A3000FF90EF90DF90CF90AF9008952F923F925C
:101A40004F925F926F927F928F929F92AF92BF92CE
:101A5000CF92DF92EF92FF920F931F93DF93CF937A
:101A6000CDB7DEB7AC970FB6F894DEBF0FBECDBFD3
:101A700088559F4FDC018C91A85AB040BCA7ABA7FA
:101A8000882309F4DEC3AC56BF4FBA83A983EBA504
:101A9000FCA5E05CFF4FFC83EB832BA53CA52C5AF7
:101AA0003F4F3E832D838BA59CA587569F4F9887DC
:101AB0008F83ABA5BCA5AB56BF4FBA87A987EBA553
:101AC000FCA5EC5BFF4FFC87EB872BA53CA5285AB8
:101AD0003F4F3E872D878BA59CA586569F4F988BA1
:101AE0008F87ABA5BCA5AA56BF4FBA8BA98BEBA518
:101AF000FCA5E85BFF4FFC8BEB8B2BA53CA5245A88
:101B00003F4F3E8B2D8B8BA59CA585569F4F988F65
:101B10008F8BABA5BCA5A956BF4FBA8FA98F7CE40C
:101B2000272E312CEBA5FCA52E0E3F1EE05AFF4FB1
:101B3000FC8FEB8F2BA53CA524563F4F3E8F2D8F5E
:101B40008BA59CA588569F4F98A38F8F60E5462E46
:101B5000512CABA5BCA54A0E5B1EAC59BF4FBAA316
:101B6000A9A3EBA5FCA5E356FF4FFCA3EBA357EA03
:101B7000652E712C2BA53CA5620E731E28593F4F74
:101B80003EA32DA38BA59CA584589F4F98A78FA3F8
:101B90004EE9842E912CABA5BCA58A0E9B1EA459A0
:101BA000BF4FBAA7A9A7E981FA81A080AB81BC8108
:101BB0000D911D912D913C91ED81FE81C080D180D0
:101BC000E280F3808BA59CA564E170E045E150E0E4
:101BD0000E94F20CAF81B8858C93E985FA85A080CC
:101BE000AB85BC850D911D912D913C91ED85FE85B8
:101BF000C080D180E280F3808BA59CA569E170E074
:101C00004AE150E00E94F20CAF85B8898C93E989D3
:101C1000FA89A080AB89BC890D911D912D913C91D1
:101C2000ED89FE89C080D180E280F3808BA59CA5E0
:101C30006EE170E04FE150E00E94F20CAF89B88D88
:101C40008C93E98DFA8DA080D1010D911D912D917C
:101C50003C91EB8DFC8DC080D180E280F3808BA520
:101C60009CA56FEF7FEF4FEF5FEF0E94F20CAD8D01
:101C7000BE8D8C93EF8DF8A1A080D2010D911D91A6
:101C80002D913C91E9A1FAA1C080D180E280F3803E
:101C90008BA59CA56FEF7FEF4FEF5FEF0E94F20CDB
:101CA000ABA1BCA18C93F3011082AF81B8858C915C
:101CB000882309F45AC0EDA1FEA180819181A281FF
:101CC000B381EFA1F8A52081318142815381820F38
:101CD000931FA41FB51F80839183A283B38318161B
:101CE00019061A061B060CF040C08FE061E00E9446
:101CF000BD208EE090E00197F1F78FE060E00E9458
:101D0000BD2081E0D3018C93F40120813181428197
:101D10005381EFA1F8A580819181A281B381821BBB
:101D2000930BA40BB50B80839183A283B383A9810A
:101D3000BA818C91EB81FC81208131814281538178
:101D4000882349F02F5F3F4F4F4F5F4F20833183F0
:101D5000428353830AC02150304040405040EB81C1
:101D6000FC812083318342835383AF85B8898C9172
:101D7000882309F45AC00BA51CA500581F4FE9A5DC
:101D8000FAA580819181A281B381F80120813181FE
:101D900042815381820F931FA41FB51F80839183BB
:101DA000A283B383181619061A061B060CF03DC051
:101DB00087E161E00E94BD208EE090E00197F1F79D
:101DC00087E160E00E94BD2081E0D3018C93F401A3
:101DD0002081318142815381F80180819181A281EA
:101DE000B381821B930BA40BB50B80839183A283D9
:101DF000B383A985BA858C91882351F0EB85FC8546
:101E000080819181A281B3810196A11DB11D09C07C
:101E1000EB85FC8580819181A281B3810197A10925
:101E2000B10980839183A283B383AF89B88D8C91EC
:101E3000882309F460C00BA51CA50C571F4FEBA508
:101E4000FCA5E059FF4F80819181A281B381E057C9
:101E5000F040FCA7EBA7F80120813181428153813A
:101E6000820F931FA41FB51F80839183A283B38326
:101E7000181619061A061B060CF03DC08BE161E02E
:101E80000E94BD208EE090E00197F1F78BE160E0C9
:101E90000E94BD2081E0D3018C93F4012081318127
:101EA00042815381F80180819181A281B381821B9B
:101EB000930BA40BB50B80839183A283B383A98971
:101EC000BA898C91882351F0EB89FC8980819181BA
:101ED000A281B3810196A11DB11D09C0EB89FC89C6
:101EE00080819181A281B3810197A109B109808389
:101EF0009183A283B383AD8DBE8D8C91882309F429
:101F00006CC06BA57CA568577F4FEBA5FCA5EC5872
:101F1000FF4F80819181A281B381E457F040FCA7FB
:101F2000EBA7FB012081318142815381820F931FF6
:101F3000A41FB51F80839183A283B383181619064B
:101F40001A061B060CF049C0E0918201F0E0EE0F8A
:101F5000FF1FE258FE4F0190F081E02D878D91E048
:101F60008927878F882319F081E161E002C081E130
:101F700060E00E94BD2081E0D3018C93F4012081B8
:101F8000318142815381EBA5FCA5E857FF4F808149
:101F90009181A281B381821B930BA40BB50B80832B
:101FA0009183A283B383A98DBA8D8C91882349F044
:101FB000F10180819181A281B3810196A11DB11DA2
:101FC00008C0F10180819181A281B3810197A109AB
:101FD000B10980839183A283B383ABA1BCA18C910F
:101FE000882309F44AC0EBA5FCA5E457FF4F2BA5B5
:101FF0003CA528583F4FD9012D913D914D915C91C1
:102000001397A857B040BCA7ABA780819181A2814C
:10201000B381280F391F4A1F5B1F208331834283FE
:10202000538312161306140615063CF5D401ED90E1
:10203000FD900D911C912E193F09400B510B2083EF
:10204000318342835383EF8DF8A18081882349F047
:10205000F20180819181A281B3810196A11DB11D00
:1020600008C0F20180819181A281B3810197A10909
:10207000B10980839183A283B383D3018C91882398
:1020800009F48EC0EBA5FCA5E057FF4FFCA7EBA71A
:10209000D2016D917D918D919C9120813181428100
:1020A00053810E947626EBA5FCA57296DF01608322
:1020B000718382839383A25AB040BCA7ABA70E94CE
:1020C000FA247B018C01EBA5FCA564AD75AD86AD52
:1020D00097AD20EC31EE44E65CE40E94AE255B0156
:1020E0006C01D4016D917D918D919C910E94FA2497
:1020F0009B01AC01C801B7010E94AE259B01AC0158
:10210000C601B5010E945F2420E030E040E050E0CD
:102110000E94AA258823D4F0F40160817181828114
:1021200093810E94FA249B01AC01C801B7010E946F
:10213000AE259B01AC01C601B5010E945F2420E0E1
:1021400030E040E05FE30E94F72319C0D4016D91B5
:102150007D918D919C910E94FA249B01AC01C80154
:10216000B7010E94AE259B01AC01C601B5010E94DA
:102170005F2420E030E040E05FE30E94F6230E940D
:10218000C724EBA5FCA5EE55FF4FDF0160837183EB
:1021900082839383A25AB040BCA7ABA70E94CA0512
:1021A000F3018081882309F03FC0ABA1BCA18C91D1
:1021B0008823D1F1F8CCEBA5FCA5E656FF4F808132
:1021C000EA59F040FCA7EBA78823D1F4E556FF4F6E
:1021D0008081EB59F040FCA7EBA7882389F4E456F3
:1021E000FF4F8081EC59F040FCA7EBA7882341F416
:1021F000E356FF4F8081ED59F040FCA7EBA701C0EB
:1022000081E0EBA5FCA5E855FF4F80838081882302
:10221000C1F48BA59CA50E94A40668EE73E080E043
:1022200090E00E94CA050DC02BA53CA527563F4F44
:10223000D9018C91A959B040BCA7ABA7882301F75D
:10224000BACFAC960FB6F894DEBF0FBECDBFCF911C
:10225000DF911F910F91FF90EF90DF90CF90BF9093
:10226000AF909F908F907F906F905F904F903F9036
:102270002F9008951F920F920FB60F9211241F9363
:102280002F933F934F935F936F937F938F939F937E
:10229000AF93BF93EF93FF9380916F008D7F8093F7
:1022A0006F00809124028F5F80932402803821F494
:1022B0000E94A60710922402E0912202F0E0EE0FA5
:1022C000FF1FE75EFD4F0190F081E02DE855FF4FC5
:1022D0008081882361F0E0912202F0E0EE0FFF1F81
:1022E000E75EFD4F808191810E941E0D22C090917A
:1022F000220280912102981799F5E0912202F0E0E4
:10230000EE0FFF1FE75EFD4F0190F081E02DE855D5
:10231000FF4F8081882321F50CC0E12FF0E0EE0F04
:10232000FF1FE75EFD4F808191810E94700710932F
:10233000220280916F00826080936F00FF91EF9185
:10234000BF91AF919F918F917F916F915F914F91CD
:102350003F912F911F910F900FBE0F901F901895D6
:10236000109122021F5F1430C0F210E0D6CF2F92DE
:102370003F924F925F926F927F928F929F92AF9215
:10238000BF92CF92DF92EF92FF920F931F93DF9352
:10239000CF93CDB7DEB7A4970FB6F894DEBF0FBECC
:1023A000CDBF2C01362E272EDC015496862F972F79
:1023B0009C01F90184E101900D928150E1F726EA38
:1023C00030E0420E531ED2011C92EAE5FFEF4E0EA2
:1023D0005F1ED20154966D917D918D919C9157977E
:1023E0002091250230912602409127025091280227
:1023F0000E94F6235B016C01E894D7F8F201608D2E
:10240000718D828D938D2091290230912A02409105
:102410002B0250912C020E94F6237B018C01E89440
:1024200017F9D2015C966D917D918D919C915F978A
:1024300020912D0230912E0240912F0250913002B6
:102440000E94F6233B014C01E89497F8F20160A149
:1024500071A182A193A12091310230913202409169
:102460003302509134020E94F6239B01AC015F7746
:102470002D8F3E8F4F8F58A3D20194966D917D91F1
:102480008D919C9197972091350230913602409121
:102490003702509138020E94F6239B01AC015F770E
:1024A00029A33AA34BA35CA3D201D8962D933D93C5
:1024B0004D935C93DB972D8D3E8D4F8D58A1D49617
:1024C0002D933D934D935C93D797F20160AA71AA27
:1024D00082AA93AA9C96ED92FD920D931C939F97CE
:1024E000A0A6B1A6C2A6D3A6C601B501A6019501B4
:1024F0000E94AE255B016C01C801B701A8019701DC
:102500000E94AE259B01AC01C601B5010E94F723D4
:102510007B018C01C401B301A40193010E94AE258B
:102520009B01AC01C801B7010E94F723D201DC96E0
:102530006D937D938D939C93DF9727E137EB41ED6E
:1025400058E30E945B2488236CF46D8D7E8D8F8D03
:1025500098A19B01AC010E94AE25F20164AF75AF5A
:1025600086AF97AFD201DC966D917D918D919C9154
:10257000DF9727E137EB41ED58E30E945B24882386
:102580006CF469A17AA18BA19CA19B01AC010E9472
:10259000AE25F20164AF75AF86AF97AFD201DC967E
:1025A0006D917D918D919C91DF970E941526F2018E
:1025B00064AF75AF86AF97AFF42CE52C8E010F5F3B
:1025C0001F4FC801B20145E252E00E94CF03D20181
:1025D000A05CBF4FF80184E101900D928150E1F7BA
:1025E00024E130E0420E531E8E010F5F1F4FC801E1
:1025F0006F2D7E2DA2010E94CF0340E450E0440ED7
:10260000551ED2018CEA9FEF480E591EF80184E155
:1026100001900D928150E1F7F201EC5AFF4FA0E4D6
:10262000B0E04A0E5B1E20813181428153812D8BA7
:102630003E8B4F8B588FF20180819181A281B381B3
:1026400020EC3FEF420E531E2D893E894F89588D55
:10265000281B390B4A0B5B0B2D8B3E8B4F8B588FF6
:1026600057FF0BC050954095309521953F4F4F4FE8
:102670005F4F2D8B3E8B4F8B588FF201E85AFF4FE7
:1026800044E450E0440E551EE080F1800281138145
:10269000F20180819181A281B3812CEB3FEF420E48
:1026A000531EE81AF90A0A0B1B0B17FF08C01095F6
:1026B0000095F094E094E11CF11C011D111DF20144
:1026C000E45AFF4F48E450E0440E551E808191814A
:1026D000A281B381898F9A8FAB8FBC8FF2018081E9
:1026E0009181A281B38128EB3FEF420E531E298DC9
:1026F0003A8D4B8D5C8D281B390B4A0B5B0B298F58
:102700003A8F4B8F5C8F57FF0BC05095409530959B
:1027100021953F4F4F4F5F4F298F3A8F4B8F5C8FE3
:10272000F201E05AFF4F4CE450E0440E551E808009
:102730009180A280B380F20180819181A281B381D6
:1027400024EB3FEF420E531E881A990AAA0ABB0ACD
:10275000B7FE08C0B094A09490948094811C911C02
:10276000A11CB11CB20168587F4FF201EC59FF4F18
:1027700040E550E0440E551E208131814281538155
:10278000F20180819181A281B381E0EBFFEF4E0ED7
:102790005F1E281B390B4A0B5B0B57FF07C0509578
:1027A0004095309521953F4F4F4F5F4FDB012D9363
:1027B0003D934D935C931397E4E7F0E04E0E5F1E5C
:1027C000D2018D929D92AD92BC921397298D3A8D34
:1027D0004B8D5C8D5E934E933E932E93FD01129331
:1027E0000293F292E292DF012D893E894F89588D42
:1027F0005E934E933E932E932D01E8E9FFEF4E0E2C
:102800005F1EDA01C9012E153F054007510714F478
:10281000D801C701F201E256FF4F80839183A28362
:10282000B383E080F1800281138120E730E0420E23
:10283000531ED2012D913D914D915C9180E99FEF06
:10284000480E591E2E153F054007510724F42081DC
:10285000318142815381F201E256FF4F208331835F
:1028600042835383E080F18002811381A4E7B0E0CA
:102870004A0E5B1ED2012D913D914D915C918CE8E9
:102880009FEF480E591E2E153F054007510724F4AF
:102890002081318142815381F201E256FF4F208332
:1028A00031834283538380819181A281B3810097D8
:1028B000A105B10599F4A6EAB0E04A0E5B1E81E0DD
:1028C000F2018083A5E2B2E0232D322DC901FC0183
:1028D00084E101900D928150E1F7B7C1B2016858CF
:1028E0007F4FF201EC59FF4F20E530E0420E531EBE
:1028F0002081318142815381F20180819181A281C5
:10290000B381E0EBFFEF4E0E5F1E281B390B4A0B25
:102910005B0B57FF07C050954095309521953F4F71
:102920004F4F5F4FDB012D933D934D935C93139776
:1029300020E9622E712C640C751C21E030E040E02F
:1029400050E0D3012D933D934D935C931397E8E7AB
:10295000F0E04E0E5F1ED201ED90FD900D911C91A6
:10296000E8E8FFEF4E0E5F1E9EE9C92ED12CC40C85
:10297000D51CF60180819181A281B3818E159F05BE
:10298000A007B1070CF07BC02081318142815381C7
:10299000C801B7010E94CA2649015A01D3018D928C
:1029A0009D92AD92BC921397B3E08B169104A10453
:1029B000B1040CF455C082010C591F4FF80160811D
:1029C000718182819381A50194010E94CA266901C7
:1029D0007A01D8012D933D934D935C931397820117
:1029E000005B1F4FF8016081718182819381A50195
:1029F00094010E94CA26C901DA01F80180839183FB
:102A0000A283B383A7019601281B390B4A0B5B0BEA
:102A100057FF07C050954095309521953F4F4F4F38
:102A20005F4F88E790E0480E591ED2012D933D93E9
:102A30004D935C931397E8E8FFEF4E0E5F1EF20193
:102A4000E256FF4F80819181A281B3818217930763
:102A5000A407B507A4F420833183428353830FC0B6
:102A600021E030E040E050E0D3012D933D934D93C1
:102A70005C931397F601E082F1820283138310E0E6
:102A8000D20154966D917D918D919C915797209193
:102A900025023091260240912702509128020E947F
:102AA000AA2588230CF011E0E4E9F0E04E0E5F1E49
:102AB000D2011C93ECE6FFEF4E0E5F1E10E0D20138
:102AC00058966D917D918D919C915B9720912902F3
:102AD00030912A0240912B0250912C020E94AA258B
:102AE00088230CF011E0E5E9F0E04E0E5F1ED20104
:102AF0001C93EBE6FFEF4E0E5F1E10E0D2015C96DA
:102B00006D917D918D919C915F9720912D023091D7
:102B10002E0240912F02509130020E94AA25882354
:102B20000CF011E0E6E9F0E04E0E5F1ED2011C93BE
:102B3000EAE6FFEF4E0E5F1E10E0D20190966D9117
:102B40007D918D919C919397209131023091320229
:102B500040913302509134020E94AA2588230CF040
:102B600011E0E7E9F0E04E0E5F1ED2011C93E9E6AA
:102B7000FFEF4E0E5F1E10E0D20194966D917D9195
:102B80008D919C919797209135023091360240911A
:102B90003702509138020E94AA2588230CF011E0D8
:102BA000E8E9F0E04E0E5F1ED2011C93E6E0F0E093
:102BB0004E0E5F1ED2016D917D918D919C91E2E64A
:102BC000FFEF4E0E5F1E22E030E040E050E00E943A
:102BD000CA2650954095309521953F4F4F4F5F4FF6
:102BE000D201A458BF4F2C9311963C931197129683
:102BF0004C93129713965C931397F201E058FF4F92
:102C0000208331834283538324E830E0420E531EF5
:102C10008D919D910D90BC91A02DF2018193919386
:102C2000A193B19381939193A193B1938083918365
:102C3000A283B383A5E2B2E0232D322DC901FC01AA
:102C400084E101900D928150E1F7A4960FB6F894BB
:102C5000DEBF0FBECDBFCF91DF911F910F91FF90CF
:102C6000EF90DF90CF90BF90AF909F908F907F902C
:102C70006F905F904F903F902F9008951F93CF9348
:102C8000DF93EC0106C061E070E080E090E00E941C
:102C90003B2080912202882329F4809121028330F5
:102CA00059F4F1CF209121028091220230E090E08E
:102CB00001972817390739F3109121021F5F14304B
:102CC00008F010E0E12FF0E0EE0FFF1FE75EFD4F90
:102CD00080819181BE010E94B71110932102DF9182
:102CE000CF911F910895CF93DF93EC019B01AFEC3F
:102CF000B2E0E5E2F2E084E101900D928150E1F76B
:102D000088819981AA81BB818093CF029093D00260
:102D1000A093D102B093D202F90180819181A28166
:102D2000B3818093DF029093E002A093E102B0931D
:102D3000E2028FEC92E00E943E16DF91CF9108955F
:102D4000CF93DF93EC019B01AFECB2E0E5E2F2E060
:102D500084E101900D928150E1F788819981AA81E7
:102D6000BB818093D3029093D402A093D502B093F9
:102D7000D602F90180819181A281B3818093DF0223
:102D80009093E002A093E102B093E2028FEC92E014
:102D90000E943E16DF91CF910895CF93DF93EC010F
:102DA0009B01AFECB2E0E5E2F2E084E101900D922C
:102DB0008150E1F788819981AA81BB818093D702F4
:102DC0009093D802A093D902B093DA02F9018081DE
:102DD0009181A281B3818093DF029093E002A0935E
:102DE000E102B093E2028FEC92E00E943E16DF9186
:102DF000CF9108954F925F926F927F928F929F92A0
:102E0000AF92BF92CF92DF92EF92FF920F931F93F8
:102E1000DF93CF93CDB7DEB7C056D0400FB6F8944E
:102E2000DEBF0FBECDBFFC01AB0180818F3209F444
:102E3000A3C780E090E0A0E0B0E08093BB02909355
:102E4000BC02A093BD02B093BE028093BF029093D8
:102E5000C002A093C102B093C2028093C3029093B8
:102E6000C402A093C502B093C6028093C702909398
:102E7000C802A093C902B093CA028093CB02909378
:102E8000CC02A093CD02B093CE0283EE92E0BF01BC
:102E90000E9432082091E3023091E402C90183705C
:102EA0009074892B91F42115310579F0809174018A
:102EB0009091750197FD09C09093E6028093E50219
:102EC00021603093E4022093E3028091E30280FFCB
:102ED00031C48091E5029091E60290937501809350
:102EE0007401ABEBB2E0E5E2F2E084E101900D9217
:102EF0008150E1F780917601882309F453C08091D5
:102F0000E30283FF10C08091EF029091F002A09144
:102F1000F102B091F2028093BB029093BC02A093A5
:102F2000BD02B093BE028091E30284FF10C0809185
:102F3000F3029091F402A091F502B091F602809311
:102F4000BF029093C002A093C102B093C2028091CD
:102F5000E30285FF10C08091F7029091F802A091E2
:102F6000F902B091FA028093C3029093C402A09335
:102F7000C502B093C6028091E3029091E40295FFEE
:102F80008BC08091FB029091FC02A091FD02B09158
:102F9000FE028093C7029093C802A093C902B09327
:102FA000CA027AC08091E30283FF1AC06091BB021B
:102FB0007091BC028091BD029091BE022091EF02FF
:102FC0003091F0024091F1025091F2020E94F723F9
:102FD0006093BB027093BC028093BD029093BE02CB
:102FE0008091E30284FF1AC06091BF027091C00219
:102FF0008091C1029091C2022091F3023091F402BB
:103000004091F5025091F6020E94F7236093BF02AF
:103010007093C0028093C1029093C2028091E30238
:1030200085FF1AC06091C3027091C4028091C502ED
:103030009091C6022091F7023091F8024091F90276
:103040005091FA020E94F7236093C3027093C40266
:103050008093C5029093C6028091E3029091E402AE
:1030600095FF1AC06091C7027091C8028091C90291
:103070009091CA022091FB023091FC024091FD0226
:103080005091FE020E94F7236093C7027093C8021A
:103090008093C9029093CA028091E3029091E40266
:1030A00091FF28C08091070390910803A091090324
:1030B000B0910A038093CB029093CC02A093CD02EF
:1030C000B093CE028BE096E06FE371E00E9478212E
:1030D0006091CB027091CC028091CD029091CE0292
:1030E0000E94C724AB01BC018BE096E02AE030E0EF
:1030F0000E9496228091E5029091E602813091052E
:1031000039F18C31910549F1892B09F01BC2E0900E
:10311000CB02F090CC020091CD021091CE0280E063
:1031200090E0A8ECB3E48093CB029093CC02A09300
:10313000CD02B093CE028BEB92E00E943E16E0925D
:10314000CB02F092CC020093CD021093CE0214C6B3
:103150008BEB92E00E943E160FC60F2EF0E06F2E12
:10316000F0E07F2EF8E48F2EF3E49F2EF02D609296
:103170003502709236028092370290923802609146
:10318000250270912602809127029091280220E06A
:1031900030E040EA50E40E94F62369837A838B830F
:1031A0009C830F2EF0E0EF2EF0E0FF2EF8EC0F2FB7
:1031B000F3E41F2FF02DED82FE820F831887CE01DE
:1031C0000196BE016B5F7F4F0E94731660912502CE
:1031D00070912602809127029091280220E030E031
:1031E0004AE753E40E94F62369877A878B879C8796
:1031F000ED86FE860F87188BCE010996BE01635FB0
:103200007F4F0E94731620E030E040E050E02093B2
:1032100025023093260240932702509328026092A1
:10322000350270923602809237029092380280E026
:1032300090E0A0E8BFE3898B9A8BAB8BBC8B6D8A47
:103240007E8A8F8A988ECE014196BE016B5E7F4F3B
:103250000E947316609125027091260280912702C8
:103260009091280220E030E040E251E40E94F623F1
:10327000698F7A8F8B8F9C8F6D8E7E8E8F8E98A2AA
:10328000CE014996BE01635E7F4F0E94731620E017
:1032900030E040E050E02093250230932602409336
:1032A0002702509328026091290270912A0280918E
:1032B0002B0290912C0220E030E040EA50E40E9482
:1032C000F62369A37AA38BA39CA3EDA2FEA20FA36E
:1032D00018A7CE018196BE016B5D7F4F0E94A0169C
:1032E0006091290270912A0280912B0290912C0208
:1032F00020E030E04AE753E40E94F62369A77AA76A
:103300008BA79CA7EDA6FEA60FA718ABCE018996AA
:10331000BE01635D7F4F0E94A01680E090E0A0E0B8
:10332000B0E08093290290932A02A0932B02B093DD
:103330002C0260923502709236028092370290928F
:10334000380220E030E040E85FE329AB3AAB4BAB1A
:103350005CAB6DAA7EAA8FAA98AECE01C196BE01C3
:103360006B5C7F4F0E94A0166091290270912A0227
:1033700080912B0290912C0220E030E040E251E459
:103380000E94F62369AF7AAF8BAF9CAFFE01FD962A
:103390006082718282829382CE01C996BF010E94AF
:1033A000A01680E090E0A0E0B0E080932902909326
:1033B0002A02A0932B02B0932C020F2EF0E0AF2E26
:1033C000F0E0BF2EF0EACF2EF0E4DF2EF02DA09239
:1033D0003502B0923602C0923702D092380291E4A0
:1033E000492E512C4C0E5D1E60912D0270912E02C3
:1033F00080912F029091300220E030E040E05FE3C6
:103400000E94F623D2016D937D938D939C93139725
:10341000FE01EB5BFF4F0F2EF0E0EF2EF0E0FF2EF2
:10342000F0E20F2FF1E41F2FF02DE082F1820283F2
:103430001383C201BF010E94CD1689E4482E512C8E
:103440004C0E5D1E60912D0270912E0280912F0214
:103450009091300220E030E04AE753E40E94F623E6
:10346000F2016083718382839383FE01E35BFF4FEC
:10347000E082F18202831383C201BF010E94CD1654
:1034800020E030E040E050E020932D0230932E0207
:1034900040932F0250933002A0923502B092360230
:1034A000C0923702D0923802DE01AF5ABF4F20E0FF
:1034B00030E040E85FE32D933D934D935C93139789
:1034C000FE01EB5AFF4FA082B182C282D382CD01AE
:1034D000BF010E94CD168E01075A1F4F60912D0229
:1034E00070912E0280912F029091300220E030E006
:1034F00040E050E40E94F623D8016D937D938D93B4
:103500009C931397FE01E35AFF4FA082B182C282BF
:10351000D382C801BF010E94CD1620E030E040E018
:1035200050E020932D0230932E0240932F025093AF
:103530003002609235027092360280923702909289
:1035400038021AC49091220280912102981709F042
:10355000FEC3E0912202F0E0EE0FFF1FE75EFD4F99
:103560000190F081E02DE855FF4F8081882309F01C
:10357000EEC38091E5029091E6028531910509F450
:1035800071C0863191053CF48430910589F04497EF
:1035900009F0BCC024C08B35910509F4AAC08C3554
:1035A000910509F4A9C08A35910509F0AFC09DC005
:1035B0006091EB027091EC028091ED029091EE022D
:1035C00020E030E040E05FE30E94F7230E94C72440
:1035D000882777FD8095982F0E943B20ABC0A9E1FA
:1035E000B2E00F2EF1E86F2EF0E37F2EFAE78F2E78
:1035F000F3E49F2EF02D0F2EF3EDEF2EF0E5FF2ECE
:10360000F9E70F2FF3E41F2FF02D0F2EF0ECAF2E64
:10361000F5E4BF2EF0E0CF2EF6E4DF2EF02D6DECBA
:103620007CE481E793E420E030E040E85FE3ED9163
:10363000FD916082718282829382E482F5820683A8
:103640001783A086B186C286D386648775878687EE
:103650009787208B318B428B538BE2E0A132BE07E0
:1036600031F768C0A9E1B2E00F2EF4E86F2EF9E956
:103670007F2EFDE18F2EF1E49F2EF02D0F2EFDE920
:10368000EF2EFCE0FF2EFDE10F2FF1E41F2FF02DB8
:103690000F2EF5E6AF2EFAE9BF2EF1EACF2EF3E4B6
:1036A000DF2EF02D60E070E088E191E420E030E072
:1036B00040E85FE3ED91FD916082718282829382A6
:1036C000E482F58206831783A086B186C286D386FC
:1036D0006487758786879787208B318B428B538BC6
:1036E000F2E0A132BF0731F725C081E08093760177
:1036F00021C0109276011EC0A5E2B2E0EBEBF2E031
:1037000084E101900D928150E1F714C08BE096E0C6
:1037100065E571E00E9478214091E5025091E60252
:10372000662757FD6095762F8BE096E02AE030E023
:103730000E9496228091E30281FFE3C290912202CF
:1037400080912102981709F009C3E0912202F0E06C
:10375000EE0FFF1FE75EFD4F0190F081E02DE85571
:10376000FF4F8081882309F0F9C28091E702909190
:10377000E8028836910509F440C089369105FCF4C9
:1037800080369105B9F18136910564F48E35910545
:1037900009F420C18F3591050CF02CC1892B09F457
:1037A000B0C29BC28236910509F4C7C18236910529
:1037B0000CF49AC18336910509F08FC226C28C366B
:1037C000910509F452C08D3691053CF48A36910575
:1037D000A1F18B369105E4F5A7C08E37910509F468
:1037E000BAC08F37910509F4D4C08D36910509F020
:1037F00074C276C000E010E063C18091E302909152
:10380000E40292FF7EC2E0918201F0E0EE0FFF1F22
:10381000E258FE4F0081118160910B0370910C03FF
:1038200080910D0390910E030E94C7249B01AC016F
:10383000C801B9010E94C20B64C2E0918201F0E0AC
:10384000EE0FFF1FE258FE4F808191816FEF0AC09B
:10385000E0918201F0E0EE0FFF1FE258FE4F808101
:10386000918160E00E942E0C4CC28091E302909105
:10387000E40292FF46C2E0918201F0E0EE0FFF1FEA
:10388000E258FE4F0081118160910B0370910C038F
:1038900080910D0390910E0320E030E04FE753E458
:1038A0000E94AE2520E030E040E05FE30E94F72375
:1038B0000E94C724DC01CB012DE4F8012187B80167
:1038C000665F7F4F4AE050E00E94960387EE91E0EA
:1038D000D8016C91075F1F4FA8010E94960B11C27F
:1038E000E0918201F0E0EE0FFF1FE258FE4F0081F1
:1038F000118160910B0370910C0380910D039091E5
:103900000E030E94C7249B01AC01C801B9010E94AB
:10391000C20BE0918201F0E0EE0FFF1FE258FE4F74
:10392000808191810E949E0C8BE096E06CE571E0B5
:103930000E947821E0918201F0E0EE0FFF1FE25833
:10394000FE4F808191810E94780CBC018BE096E053
:103950000E947122D6C1E0918201F0E0EE0FFF1FBC
:10396000E258FE4F008111816091EB027091EC02F0
:103970008091ED029091EE0220E030E040E05FE3C4
:103980000E94F7230E94C7249B01AC01C80161E09B
:103990001DC0E0918201F0E0EE0FFF1FE258FE4FE4
:1039A000008111816091EB027091EC028091ED0237
:1039B0009091EE0220E030E040E05FE30E94F723C8
:1039C0000E94C7249B01AC01C80160E0A9010E94CC
:1039D000490C97C180918201813009F092C1809198
:1039E0008001909181010E94950664EF71E080E072
:1039F00090E0A0C080918201813009F082C100E096
:103A000010E024C0E0918201F0E0EE0FFF1FE258C9
:103A1000FE4F808191810E94950664EF71E080E005
:103A200090E00E943B20E0918201F0E0EE0FFF1F4A
:103A3000E258FE4F808191810E94950664EF71E00B
:103A400080E090E00E943B200F5F1F4FB801882765
:103A500077FD8095982F0E94FA2420910B033091D6
:103A60000C0340910D0350910E030E945B2487FDCF
:103A7000C9CF47C1E0918201F0E0EE0FFF1FE2588D
:103A8000FE4F808191816FEF0E942E0C6AEF70E0F3
:103A900080E090E00E943B20E0918201F0E0EE0F98
:103AA000FF1FE258FE4F8081918160E00E942E0C42
:103AB0006AEF70E080E090E00E943B200F5F1F4FB4
:103AC000B801882777FD8095982F0E94FA242091CD
:103AD0000B0330910C0340910D0350910E030E9493
:103AE0005B2487FDC7CF0DC1E0918201F0E0EE0FAE
:103AF000FF1FE258FE4F8081918161E04AEF50E064
:103B00000E94490C6AEF70E080E090E00E943B2048
:103B1000E0918201F0E0EE0FFF1FE258FE4F80813E
:103B2000918160E04AEF50E00E94490C6AEF70E03A
:103B300080E090E00E943B20E4C08091E3029091FD
:103B4000E40291FF10C08091070390910803A091B7
:103B50000903B0910A038093CB029093CC02A09307
:103B6000CD02B093CE0280918201813009F0C9C0AC
:103B70006091CB027091CC028091CD029091CE02E7
:103B80000E94C724882777FD8095982F0E94FA24E9
:103B900020E030E040E250E40E945F240E94C7240D
:103BA0004B0160E070E08AE794E420910B033091D0
:103BB0000C0340910D0350910E030E945F240E945C
:103BC000C7247B018C0185E061E00E94BD2000E0FC
:103BD00010E05701CC24B7FCC094DC2C12C084E068
:103BE00061E00E94BD20C601B5010E943B2084E037
:103BF00060E00E94BD20C601B5010E943B200F5F1E
:103C00001F4F081519055CF37CC08091E302909169
:103C1000E40291FF10C08091070390910803A091E6
:103C20000903B0910A038093CB029093CC02A09336
:103C3000CD02B093CE0280918201813009F061C043
:103C40006091CB027091CC028091CD029091CE0216
:103C50000E94C724882777FD8095982F0E94FA2418
:103C600020E030E040E250E40E945F240E94C7243C
:103C70004B0160E070E08AE794E420910B033091FF
:103C80000C0340910D0350910E030E945F240E948B
:103C9000C7247B018C0185E060E00E94BD2000E02C
:103CA00010E05701CC24B7FCC094DC2C12C084E097
:103CB00061E00E94BD20C601B5010E943B2084E066
:103CC00060E00E94BD20C601B5010E943B200F5F4D
:103CD0001F4F081519055CF314C08BE096E06FE5E3
:103CE00071E00E9478214091E7025091E802662736
:103CF00057FD6095762F8BE096E02AE030E00E9439
:103D000096228091E3029091E40296FF35C0909153
:103D1000220280912102981741F5E0912202F0E001
:103D2000EE0FFF1FE75EFD4F0190F081E02DE8559B
:103D3000FF4F80818823C9F49091E902911191E0AD
:103D4000809182019817C1F09093820115C061E0C3
:103D500070E080E090E00E943B20F4CB61E070E0F6
:103D600080E090E00E943B20E9CC61E070E080E0E0
:103D700090E00E943B20CBCFC05ADF4F0FB6F894A3
:103D8000DEBF0FBECDBFCF91DF911F910F91FF908E
:103D9000EF90DF90CF90BF90AF909F908F907F90EB
:103DA0006F905F904F9008958BE096E00E946E2197
:103DB000882331F18BE096E00E94692180937301A2
:103DC0000E94A607809173018D3019F48AE08093D8
:103DD00073019091730190329CF09B3319F481E050
:103DE0008093BA028091BA02882351F48091B9027B
:103DF000E82FF0E0E75CFD4F90838F5F8093B9027E
:103E00008091B90287FF04C01092B9021092BA02E1
:103E10006091B902662351F1809173018A3031F5C6
:103E200070E0FB01E75CFD4F108289E392E00E94A5
:103E3000FA161092B9021092BA0280918301882377
:103E400079F08BE096E066E671E00E9478218BE0E5
:103E500096E063E871E00E94A72110928301089523
:103E60008BE096E06AE671E00E94A72108950E9427
:103E7000D41E87EE91E00E94BE0A0895EF92FF9251
:103E80000F931F932FE6E22EF12CF70180818D7F97
:103E900080830E944C051092240280E061E00E9421
:103EA0009F20109283011092230289E393E0909364
:103EB0007F0180937E0187E193E09093810180935D
:103EC00080011092820110922102109222028BE551
:103ED00093E090931A028093190284E094E0909307
:103EE0001C0280931B028DEA94E090931E02809343
:103EF0001D0286E595E09093200280931F021092A8
:103F0000B9021092BA020BE016E0C80140E05BE48F
:103F100060E070E00E947321C8016DE671E00E94CC
:103F2000A7218EE061E00E949F208EE060E00E9469
:103F3000BD2060ED77E080E090E00E943B208EE0C5
:103F400096E040E452E46FE070E00E94732168EE76
:103F500073E080E090E00E94CA05F70180818260F2
:103F600080831F910F91FF90EF9008950E9465202C
:103F70000E943E1F0E94371FFDCF1F920F920FB667
:103F80000F9211242F938F939F93AF93BF938091A0
:103F9000FF0590910006A0910106B09102060196DE
:103FA000A11DB11D8093FF0590930006A09301060B
:103FB000B09302068091030690910406A091050635
:103FC000B09106068050904CAF4FBF4F80930306D0
:103FD00090930406A0930506B093060627C080912F
:103FE000030690910406A0910506B091060680583C
:103FF0009E43A040B0408093030690930406A09394
:104000000506B09306068091070690910806A091D8
:104010000906B0910A060196A11DB11D80930706FD
:1040200090930806A0930906B0930A0680910306B0
:1040300090910406A0910506B091060681589E4312
:10404000A040B04060F6BF91AF919F918F912F91AA
:104050000F900FBE0F901F9018958FB7F894209176
:104060000706309108064091090650910A068FBF55
:10407000B901CA010895EF92FF920F931F937B013C
:104080008C018FB7F8944091070650910806609113
:10409000090670910A068FBF2FB7F8948091070622
:1040A00090910806A0910906B0910A062FBF841BC3
:1040B000950BA60BB70BE816F9060A071B0760F766
:1040C0001F910F91FF90EF900895789484B58260CE
:1040D00084BD84B5816084BD85B5826085BD85B5AC
:1040E000816085BDEEE6F0E0808181608083E1E85B
:1040F000F0E0808182608083808181608083E0E85D
:10410000F0E0808181608083E1EBF0E08081846079
:104110008083E0EBF0E0808181608083EAE7F0E07B
:1041200080818460808380818260808380818160DF
:1041300080838081806880831092C1000895282F39
:1041400030E0C90185559F4FFC01949125573F4FA1
:10415000F9018491882381F0E82FF0E0E458FF4FC3
:10416000E491F0E0662329F480819095892380838F
:1041700008958081892B80830895482F50E0CA01DB
:1041800085539F4FFC012491CA0185559F4FFC0127
:10419000949145575F4FFA0134913323C1F12223A3
:1041A00031F1213019F484B58F7704C0223021F425
:1041B00084B58F7D84BD1BC0233021F480918000A5
:1041C0008F7705C0243031F4809180008F7D8093FB
:1041D00080000DC0263021F48091B0008F7705C09B
:1041E000273029F48091B0008F7D8093B000E32FB9
:1041F000F0E0EF57FF4FE491F0E0662329F480816F
:1042000090958923808308958081892B80830895E8
:10421000482F50E0CA0185539F4FFC012491CA01E9
:1042200085559F4FFC01949145575F4FFA0134919A
:10423000332319F420E030E035C0222331F121305E
:1042400019F484B58F7704C0223021F484B58F7DB2
:1042500084BD1BC0233021F4809180008F7705C07E
:10426000243031F4809180008F7D809380000DC0D8
:10427000263021F48091B0008F7705C0273029F4D3
:104280008091B0008F7D8093B000E32FF0E0EA577B
:10429000FF4FE491F0E0808120E030E0892311F0CD
:1042A00021E030E0C90108958BE791E090930C067E
:1042B00080930B0610920D0690930F0680930E06C6
:1042C00081E0809310060895FC0182810E942923D9
:1042D0000895FC0182810E944F230895FC01828190
:1042E0000E9439230895FC0182810E94A122089531
:1042F0000F931F93CF93DF938C01EB0109C021969D
:10430000D801ED91FC910190F081E02DC801099553
:1043100068816623A1F7DF91CF911F910F910895D6
:104320000F931F938C01DC01ED91FC910190F081C2
:10433000E02D6DE00995D801ED91FC910190F0819F
:10434000E02DC8016AE009951F910F9108950F9320
:104350001F938C010E947821C8010E9490211F9117
:104360000F9108952F923F924F925F926F927F929A
:104370008F929F92AF92BF92CF92DF92EF92FF9275
:104380000F931F93DF93CF93CDB7DEB7A0970FB6F0
:10439000F894DEBF0FBECDBF1C016A017B01411541
:1043A00051056105710549F4DC01ED91FC91019025
:1043B000F081E02D60E3099554C0882499245401CC
:1043C000422E55246624772401E010E00C0F1D1FB7
:1043D000080D191DC701B601A30192010E94A8266C
:1043E000F80160830894811C911CA11CB11CC701B9
:1043F000B601A30192010E94A826C901DA016C014D
:104400007D01C114D104E104F104F1F681E0E82E4C
:10441000F12CEC0EFD1EE80CF91C3E010894611C09
:10442000711CD501C4010197A109B1096C01C8181B
:10443000D90814C0F601EE0DFF1D60816A3010F43A
:10444000605D01C0695CD101ED91FC910190F0814A
:10445000E02DC10109950894E108F1086E147F046C
:1044600049F7A0960FB6F894DEBF0FBECDBFCF912F
:10447000DF911F910F91FF90EF90DF90CF90BF9051
:10448000AF909F908F907F906F905F904F903F90F4
:104490002F900895EF92FF920F931F93CF93DF9386
:1044A000EC017A018B0177FF0FC0E881F98101905F
:1044B000F081E02D6DE2099510950095F094E0945F
:1044C000E11CF11C011D111DCE01B801A7012AE05C
:1044D0000E94B221DF91CF911F910F91FF90EF9039
:1044E00008950F931F938C01AB01662757FD6095CC
:1044F000762F0E944A22C8010E9490211F910F919D
:104500000895DC012115310541F4ED91FC910190F4
:10451000F081E02D642F099508952A30310519F4B2
:104520000E944A2208950E94B22108950F931F937A
:104530008C010E948122C8010E9490211F910F913D
:104540000895EF92FF920F931F937A018B018823B6
:10455000F1F5CB01BA0122E030E040E050E00E94EA
:10456000CA26205C3D4B404F5F4FCA01B901A801EC
:1045700097010E94CA26C901DA010197A109B10970
:10458000292F3A2F4B2F552747FD5A950196A11DEC
:10459000B11D2093C50081508093C4001092C000CB
:1045A0001092C1001092C2008091C100806180937E
:1045B000C1008091C10088608093C1008091C100DA
:1045C00080688093C10086E08093C2003DC0CB012B
:1045D000BA0122E030E040E050E00E94CA26205CB0
:1045E0003D4B404F5F4FCA01B901A80197010E949E
:1045F000CA26C901DA010197A109B109292F3A2F69
:104600004B2F552747FD5A950196A11DB11D2093AB
:10461000CD0081508093CC001092C8001092C90048
:104620001092CA008091C90080618093C900809176
:10463000C90088608093C9008091C9008068809318
:10464000C90086E08093CA001F910F91FF90EF9000
:104650000895882339F48091C00085FFFCCF6093D2
:10466000C60008958091C80085FFFCCF6093CE00FE
:104670000895E82FF0E0EE0FFF1FDF01AF5EB94FA6
:104680008D919C9180589F4FEB5EF94F2081318135
:10469000821B930B60E870E00E9495260895CF93EB
:1046A000DF93A82FB0E0FD01EE0FFF1FEF01CB5EFF
:1046B000D94F48815981EF5EF94F808191818417EC
:1046C000950719F42FEF3FEF13C0B695BA2FAA271D
:1046D000B795A795A40FB51FA75EB94F2C91CA0136
:1046E000019660E870E00E9495269983888330E007
:1046F000C901DF91CF9108951F920F920FB60F92CB
:1047000011242F933F934F935F936F937F938F93D6
:104710009F93AF93BF93EF93FF934091C600E091B7
:104720001106F0911206CF01019660E870E00E9438
:1047300095269C0180911506909116062817390739
:1047400039F0E75EF94F408330931206209311064B
:10475000FF91EF91BF91AF919F918F917F916F9159
:104760005F914F913F912F910F900FBE0F901F902F
:1047700018951F920F920FB60F9211242F933F930B
:104780004F935F936F937F938F939F93AF93BF9359
:10479000EF93FF934091CE00E0911306F091140641
:1047A000CF01019660E870E00E9495269C018091FF
:1047B0001706909118062817390739F0E756F94F70
:1047C00040833093140620931306FF91EF91BF911D
:1047D000AF919F918F917F916F915F914F913F9199
:1047E0002F910F900FBE0F901F9018955058BB2718
:1047F000AA270ED075C166D130F06BD120F031F40C
:104800009F3F11F41EF45BC10EF4E095E7FB51C12C
:10481000E92F77D180F3BA176207730784079507EA
:1048200018F071F49EF58FC10EF4E0950B2EBA2F9F
:10483000A02D0B01B90190010C01CA01A0011124A6
:10484000FF27591B99F0593F50F4503E68F11A1652
:10485000F040A22F232F342F4427585FF3CF4695E3
:1048600037952795A795F0405395C9F77EF41F1605
:10487000BA0B620B730B840BBAF09150A1F0FF0FCF
:10488000BB1F661F771F881FC2F70EC0BA0F621FBB
:10489000731F841F48F4879577956795B795F795AB
:1048A0009E3F08F0B3CF9395880F08F09927EE0F3D
:1048B000979587950895D9D008F481E008950CD094
:1048C0000FC107D140F0FED030F021F45F3F19F066
:1048D000F0C0511139C1F3C014D198F39923C9F331
:1048E0005523B1F3951B550BBB27AA2762177307F6
:1048F000840738F09F5F5F4F220F331F441FAA1FAA
:10490000A9F333D00E2E3AF0E0E830D09150504069
:10491000E695001CCAF729D0FE2F27D0660F771F17
:10492000881FBB1F261737074807AB07B0E809F0F9
:10493000BB0B802DBF01FF2793585F4F2AF09E3F8E
:10494000510568F0B6C000C15F3FECF3983EDCF360
:10495000869577956795B795F7959F5FC9F7880F07
:10496000911D9695879597F90895E1E0660F771F59
:10497000881FBB1F621773078407BA0720F0621BEA
:10498000730B840BBA0BEE1F88F7E095089504D0E3
:104990006894B111D9C00895BCD088F09F5790F0A9
:1049A000B92F9927B751A0F0D1F0660F771F881F54
:1049B000991F1AF0BA95C9F712C0B13081F0C3D06F
:1049C000B1E00895C0C0672F782F8827B85F39F00D
:1049D000B93FCCF3869577956795B395D9F73EF4B3
:1049E00090958095709561957F4F8F4F9F4F08955B
:1049F000E89409C097FB3EF4909580957095619579
:104A00007F4F8F4F9F4F9923A9F0F92F96E9BB272E
:104A10009395F695879577956795B795F111F8CFAA
:104A2000FAF4BB0F11F460FF1BC06F5F7F4F8F4F15
:104A30009F4F16C0882311F096E911C0772321F00B
:104A40009EE8872F762F05C0662371F096E8862FA3
:104A500070E060E02AF09A95660F771F881FDAF7FA
:104A6000880F9695879597F90895990F0008550F27
:104A7000AA0BE0E8FEEF16161706E807F907C0F0E4
:104A800012161306E407F50798F0621B730B840BEC
:104A9000950B39F40A2661F0232B242B252B21F4C6
:104AA00008950A2609F4A140A6958FEF811D811D66
:104AB000089597F99F6780E870E060E008959FEFA0
:104AC00080EC089500240A941616170618060906A5
:104AD000089500240A941216130614060506089574
:104AE000092E0394000C11F4882352F0BB0F40F4FC
:104AF000BF2B11F460FF04C06F5F7F4F8F4F9F4F3C
:104B0000089557FD9058440F551F59F05F3F71F0BD
:104B10004795880F97FB991F61F09F3F79F0879524
:104B20000895121613061406551FF2CF4695F1DFAD
:104B300008C0161617061806991FF1CF869571053D
:104B4000610508940895E894BB2766277727CB0171
:104B500097F908958ADF08F48FEF08950BD0C0CF3E
:104B6000B1DF28F0B6DF18F0952309F0A2CFA7CF68
:104B70001124EACFC6DFA0F3959FD1F3950F50E043
:104B8000551F629FF001729FBB27F00DB11D639FFF
:104B9000AA27F00DB11DAA1F649F6627B00DA11DA5
:104BA000661F829F2227B00DA11D621F739FB00D4B
:104BB000A11D621F839FA00D611D221F749F3327BB
:104BC000A00D611D231F849F600D211D822F762F54
:104BD0006A2F11249F5750408AF0E1F088234AF051
:104BE000EE0FFF1FBB1F661F771F881F915050409D
:104BF000A9F79E3F510570F05CCFA6CF5F3FECF365
:104C0000983EDCF3869577956795B795F795E79588
:104C10009F5FC1F7FE2B880F911D9695879597F999
:104C2000089511F40EF44BCF4AC073DFD0F39923EB
:104C3000D9F3CEF39F57550B87FF51D056959795D3
:104C4000B0E020F4660F771F881FBB1F1F930F93E0
:104C500000249001A0018001F001A0E80E0F1F1FA9
:104C60000A1E511D601B710B8009B50B48F4600FC3
:104C7000711F801DB51F0E1B1F0B0A0A510907C0AB
:104C80002E0F3F1F4A1F0E0F1F1F0A1E511D660FBA
:104C9000771F881FBB1FA695F795E795F8F60617AF
:104CA000170708065B07211D311D411D0F911F913C
:104CB000B901842F9158880F9695879508959F3F45
:104CC00049F0915028F4869577956795B7959F5F41
:104CD00080389F4F880F9695879597F90895915042
:104CE0005040660F771F881FD2F70895629FD0014A
:104CF000739FF001829FE00DF11D649FE00DF11D97
:104D0000929FF00D839FF00D749FF00D659FF00D45
:104D10009927729FB00DE11DF91F639FB00DE11D32
:104D2000F91FBD01CF011124089597FB092E072615
:104D30000AD077FD04D049D006D000201AF470952F
:104D400061957F4F0895F6F7909581959F4F08954F
:104D5000A1E21A2EAA1BBB1BFD010DC0AA1FBB1F7F
:104D6000EE1FFF1FA217B307E407F50720F0A21BF1
:104D7000B30BE40BF50B661F771F881F991F1A945E
:104D800069F760957095809590959B01AC01BD0188
:104D9000CF01089597FB092E05260ED057FD04D0AC
:104DA000D7DF0AD0001C38F45095409530952195F6
:104DB0003F4F4F4F5F4F0895F6F790958095709550
:104DC00061957F4F8F4F9F4F0895AA1BBB1B51E1E9
:104DD00007C0AA1FBB1FA617B70710F0A61BB70B6B
:104DE000881F991F5A95A9F780959095BC01CD0110
:104DF0000895EE0FFF1F0590F491E02D0994911195
:104E000006C0803219F089508550D0F7089599274F
:104E1000882708952F923F924F925F926F927F92D0
:104E20008F929F92AF92BF92CF92DF92EF92FF92BA
:104E30000F931F93CF93DF93CDB7DEB7CA1BDB0B66
:104E40000FB6F894DEBF0FBECDBF09942A8839880B
:104E500048885F846E847D848C849B84AA84B98412
:104E6000C884DF80EE80FD800C811B81AA81B9811E
:104E7000CE0FD11D0FB6F894DEBF0FBECDBFED0132
:064E80000895F894FFCF35
:104E860050726F63657373205061636B657420495C
:104E96006600454200454100453900453800453722
:104EA600004536004535004534004533004532009F
:104EB6004531004544200045432000453A20004640
:104EC600206E756D62657220286A7573742072652E
:104ED6006164293D006875683F204700543A0048E0
:104EE60075683F204D006F6B20006F6B0073746117
:0E4EF6007274003FFFFF010000000064210005
:00000001FF
